{
  "contractName": "SmartRentFactory",
  "abi": [
    {
      "anonymous": false,
      "inputs": [
        {
          "indexed": false,
          "internalType": "address",
          "name": "contractAddress",
          "type": "address"
        },
        {
          "indexed": true,
          "internalType": "address",
          "name": "landlord",
          "type": "address"
        },
        {
          "indexed": true,
          "internalType": "address",
          "name": "tenant",
          "type": "address"
        }
      ],
      "name": "NewLease",
      "type": "event"
    },
    {
      "constant": false,
      "inputs": [
        {
          "internalType": "string",
          "name": "_landlord",
          "type": "string"
        },
        {
          "internalType": "address payable",
          "name": "_landlordAddress",
          "type": "address"
        },
        {
          "internalType": "string",
          "name": "_roomAddress",
          "type": "string"
        },
        {
          "internalType": "uint256",
          "name": "_startDate",
          "type": "uint256"
        },
        {
          "internalType": "uint256",
          "name": "_endDate",
          "type": "uint256"
        },
        {
          "internalType": "uint256",
          "name": "_deposit",
          "type": "uint256"
        },
        {
          "internalType": "uint256",
          "name": "_rent",
          "type": "uint256"
        },
        {
          "internalType": "address payable",
          "name": "_tenantAddress",
          "type": "address"
        }
      ],
      "name": "createRent",
      "outputs": [],
      "payable": false,
      "stateMutability": "nonpayable",
      "type": "function"
    }
  ],
  "bytecode": "0x60806040526040518060400160405280600a81526020017f436f6e6e656374656420000000000000000000000000000000000000000000008152506000908051906020019061004f929190610062565b5034801561005c57600080fd5b50610107565b828054600181600116156101000203166002900490600052602060002090601f016020900481019282601f106100a357805160ff19168380011785556100d1565b828001600101855582156100d1579182015b828111156100d05782518255916020019190600101906100b5565b5b5090506100de91906100e2565b5090565b61010491905b808211156101005760008160009055506001016100e8565b5090565b90565b611d24806101166000396000f3fe608060405234801561001057600080fd5b506004361061002b5760003560e01c8063b9b392e614610030575b600080fd5b6101e9600480360361010081101561004757600080fd5b810190808035906020019064010000000081111561006457600080fd5b82018360208201111561007657600080fd5b8035906020019184600183028401116401000000008311171561009857600080fd5b91908080601f016020809104026020016040519081016040528093929190818152602001838380828437600081840152601f19601f820116905080830192505050505050509192919290803573ffffffffffffffffffffffffffffffffffffffff1690602001909291908035906020019064010000000081111561011b57600080fd5b82018360208201111561012d57600080fd5b8035906020019184600183028401116401000000008311171561014f57600080fd5b91908080601f016020809104026020016040519081016040528093929190818152602001838380828437600081840152601f19601f82011690508083019250505050505050919291929080359060200190929190803590602001909291908035906020019092919080359060200190929190803573ffffffffffffffffffffffffffffffffffffffff1690602001909291905050506101eb565b005b6000888888888888888860405161020190610419565b80806020018973ffffffffffffffffffffffffffffffffffffffff1673ffffffffffffffffffffffffffffffffffffffff168152602001806020018881526020018781526020018681526020018581526020018473ffffffffffffffffffffffffffffffffffffffff1673ffffffffffffffffffffffffffffffffffffffff16815260200183810383528b818151815260200191508051906020019080838360005b838110156102be5780820151818401526020810190506102a3565b50505050905090810190601f1680156102eb5780820380516001836020036101000a031916815260200191505b50838103825289818151815260200191508051906020019080838360005b83811015610324578082015181840152602081019050610309565b50505050905090810190601f1680156103515780820380516001836020036101000a031916815260200191505b509a5050505050505050505050604051809103906000f08015801561037a573d6000803e3d6000fd5b5090508173ffffffffffffffffffffffffffffffffffffffff168873ffffffffffffffffffffffffffffffffffffffff167f6a5e83232efe4dca9454d60fbe19e482e52f973d7fa4123b439c1f9c338a8b7983604051808273ffffffffffffffffffffffffffffffffffffffff1673ffffffffffffffffffffffffffffffffffffffff16815260200191505060405180910390a3505050505050505050565b6118c9806104278339019056fe60806040526000600260006101000a81548160ff0219169083151502179055506000600260016101000a81548160ff0219169083151502179055506000600a556000600c553480156200005157600080fd5b50604051620018c9380380620018c983398181016040526101008110156200007857600080fd5b81019080805160405193929190846401000000008211156200009957600080fd5b83820191506020820185811115620000b057600080fd5b8251866001820283011164010000000082111715620000ce57600080fd5b8083526020830192505050908051906020019080838360005b8381101562000104578082015181840152602081019050620000e7565b50505050905090810190601f168015620001325780820380516001836020036101000a031916815260200191505b5060405260200180519060200190929190805160405193929190846401000000008211156200016057600080fd5b838201915060208201858111156200017757600080fd5b82518660018202830111640100000000821117156200019557600080fd5b8083526020830192505050908051906020019080838360005b83811015620001cb578082015181840152602081019050620001ae565b50505050905090810190601f168015620001f95780820380516001836020036101000a031916815260200191505b50604052602001805190602001909291908051906020019092919080519060200190929190805190602001909291908051906020019092919050505087600190805190602001906200024d92919062000319565b50866000806101000a81548173ffffffffffffffffffffffffffffffffffffffff021916908373ffffffffffffffffffffffffffffffffffffffff1602179055508560099080519060200190620002a692919062000319565b508460078190555083600881905550826006819055508160058190555081600b8190555080600460006101000a81548173ffffffffffffffffffffffffffffffffffffffff021916908373ffffffffffffffffffffffffffffffffffffffff1602179055505050505050505050620003c8565b828054600181600116156101000203166002900490600052602060002090601f016020900481019282601f106200035c57805160ff19168380011785556200038d565b828001600101855582156200038d579182015b828111156200038c5782518255916020019190600101906200036f565b5b5090506200039c9190620003a0565b5090565b620003c591905b80821115620003c1576000816000905550600101620003a7565b5090565b90565b6114f180620003d86000396000f3fe60806040526004361061012a5760003560e01c8063a3073fab116100ab578063c24a0f8b1161006f578063c24a0f8b146103bc578063d1aac171146103e7578063d964f29e14610438578063e1746af9146104c8578063e66a6b2214610531578063f8ef1e13146105605761012a565b8063a3073fab146102ee578063a709c4fe14610319578063aca1feea14610323578063b8b4f1a01461037a578063bf8c0efc146103915761012a565b80635c274b86116100f25780635c274b86146101f45780635f696ec3146101fe5780636322182e14610229578063906b7fc7146102335780639419bc291461025e5761012a565b806302d8db081461012f5780630b97bc8614610186578063117df088146101b157806329d07a51146101bb57806332dd81f6146101c5575b600080fd5b34801561013b57600080fd5b5061014461058b565b604051808273ffffffffffffffffffffffffffffffffffffffff1673ffffffffffffffffffffffffffffffffffffffff16815260200191505060405180910390f35b34801561019257600080fd5b5061019b6105b0565b6040518082815260200191505060405180910390f35b6101b96105b6565b005b6101c361088b565b005b3480156101d157600080fd5b506101da610a7b565b604051808215151515815260200191505060405180910390f35b6101fc610a8e565b005b34801561020a57600080fd5b50610213610b8d565b6040518082815260200191505060405180910390f35b610231610b93565b005b34801561023f57600080fd5b50610248610d46565b6040518082815260200191505060405180910390f35b34801561026a57600080fd5b50610273610d4c565b6040518080602001828103825283818151815260200191508051906020019080838360005b838110156102b3578082015181840152602081019050610298565b50505050905090810190601f1680156102e05780820380516001836020036101000a031916815260200191505b509250505060405180910390f35b3480156102fa57600080fd5b50610303610dea565b6040518082815260200191505060405180910390f35b610321610df0565b005b34801561032f57600080fd5b50610338610f80565b604051808273ffffffffffffffffffffffffffffffffffffffff1673ffffffffffffffffffffffffffffffffffffffff16815260200191505060405180910390f35b34801561038657600080fd5b5061038f610fa6565b005b34801561039d57600080fd5b506103a661109e565b6040518082815260200191505060405180910390f35b3480156103c857600080fd5b506103d16110a4565b6040518082815260200191505060405180910390f35b3480156103f357600080fd5b506104366004803603602081101561040a57600080fd5b81019080803573ffffffffffffffffffffffffffffffffffffffff1690602001909291905050506110aa565b005b34801561044457600080fd5b5061044d61126f565b6040518080602001828103825283818151815260200191508051906020019080838360005b8381101561048d578082015181840152602081019050610472565b50505050905090810190601f1680156104ba5780820380516001836020036101000a031916815260200191505b509250505060405180910390f35b3480156104d457600080fd5b50610517600480360360208110156104eb57600080fd5b81019080803573ffffffffffffffffffffffffffffffffffffffff16906020019092919050505061130d565b604051808215151515815260200191505060405180910390f35b34801561053d57600080fd5b5061054661132d565b604051808215151515815260200191505060405180910390f35b34801561056c57600080fd5b50610575611340565b6040518082815260200191505060405180910390f35b6000809054906101000a900473ffffffffffffffffffffffffffffffffffffffff1681565b60075481565b600460009054906101000a900473ffffffffffffffffffffffffffffffffffffffff1673ffffffffffffffffffffffffffffffffffffffff163373ffffffffffffffffffffffffffffffffffffffff161461061057600080fd5b60011515600260019054906101000a900460ff16151514610699576040517f08c379a00000000000000000000000000000000000000000000000000000000081526004018080602001828103825260208152602001807f54656e616e74206e65656420746f20706179206465706f73697420666972737481525060200191505060405180910390fd5b60085442116106f3576040517f08c379a00000000000000000000000000000000000000000000000000000000081526004018080602001828103825260318152602001806113e06031913960400191505060405180910390fd5b6000600a541161074e576040517f08c379a00000000000000000000000000000000000000000000000000000000081526004018080602001828103825260238152602001806114656023913960400191505060405180910390fd5b6000600b54146107a9576040517f08c379a000000000000000000000000000000000000000000000000000000000815260040180806020018281038252603d8152602001806113a3603d913960400191505060405180910390fd5b600460009054906101000a900473ffffffffffffffffffffffffffffffffffffffff1673ffffffffffffffffffffffffffffffffffffffff166108fc600a549081150290604051600060405180830381858888f19350505050158015610813573d6000803e3d6000fd5b506000600a819055507f4482101800a5c2e900f4156e57e05e19ffd7b366cde579553d723fd3abb2180e33600654604051808373ffffffffffffffffffffffffffffffffffffffff1673ffffffffffffffffffffffffffffffffffffffff1681526020018281526020019250505060405180910390a1565b6000809054906101000a900473ffffffffffffffffffffffffffffffffffffffff1673ffffffffffffffffffffffffffffffffffffffff163373ffffffffffffffffffffffffffffffffffffffff16146108e457600080fd5b600854421161093e576040517f08c379a00000000000000000000000000000000000000000000000000000000081526004018080602001828103825260308152602001806113476030913960400191505060405180910390fd5b6000600b54141561099a576040517f08c379a00000000000000000000000000000000000000000000000000000000081526004018080602001828103825260548152602001806114116054913960600191505060405180910390fd5b6000809054906101000a900473ffffffffffffffffffffffffffffffffffffffff1673ffffffffffffffffffffffffffffffffffffffff166108fc600a549081150290604051600060405180830381858888f19350505050158015610a03573d6000803e3d6000fd5b506000600a819055507fe800e3ea37ded367af4fce9aa5ecaa72b693f315a2c3b6c7a3d07c84196515fb33600654604051808373ffffffffffffffffffffffffffffffffffffffff1673ffffffffffffffffffffffffffffffffffffffff1681526020018281526020019250505060405180910390a1565b600260019054906101000a900460ff1681565b60001515600260019054906101000a900460ff16151514610afa576040517f08c379a000000000000000000000000000000000000000000000000000000000815260040180806020018281038252602c815260200180611377602c913960400191505060405180910390fd5b6001600260016101000a81548160ff02191690831515021790555034600a5401600a819055507ff1953715a33b9e021c0f2cf12911e8ac25fdb177bf6fc92d1331ae05201fe9f63334604051808373ffffffffffffffffffffffffffffffffffffffff1673ffffffffffffffffffffffffffffffffffffffff1681526020018281526020019250505060405180910390a1565b600b5481565b6000809054906101000a900473ffffffffffffffffffffffffffffffffffffffff1673ffffffffffffffffffffffffffffffffffffffff163373ffffffffffffffffffffffffffffffffffffffff1614610bec57600080fd5b6000600c541415610c65576040517f08c379a00000000000000000000000000000000000000000000000000000000081526004018080602001828103825260208152602001807f54656e616e7420686173206e6f74207061696420616e792072656e742079657481525060200191505060405180910390fd5b6000809054906101000a900473ffffffffffffffffffffffffffffffffffffffff1673ffffffffffffffffffffffffffffffffffffffff166108fc600c549081150290604051600060405180830381858888f19350505050158015610cce573d6000803e3d6000fd5b507ffeb9f3b8586fb3823735104fd243164bdb90fcd9e989f902e96eb5b26bed4e3833600c54604051808373ffffffffffffffffffffffffffffffffffffffff1673ffffffffffffffffffffffffffffffffffffffff1681526020018281526020019250505060405180910390a16000600c81905550565b600a5481565b60018054600181600116156101000203166002900480601f016020809104026020016040519081016040528092919081815260200182805460018160011615610100020316600290048015610de25780601f10610db757610100808354040283529160200191610de2565b820191906000526020600020905b815481529060010190602001808311610dc557829003601f168201915b505050505081565b600c5481565b600460009054906101000a900473ffffffffffffffffffffffffffffffffffffffff1673ffffffffffffffffffffffffffffffffffffffff163373ffffffffffffffffffffffffffffffffffffffff1614610e4a57600080fd5b60011515600260009054906101000a900460ff16151514610e6a57600080fd5b60011515600260019054906101000a900460ff16151514610ef3576040517f08c379a00000000000000000000000000000000000000000000000000000000081526004018080602001828103825260208152602001807f54656e616e74206e65656420746f20706179206465706f73697420666972737481525060200191505060405180910390fd5b6008544210610f0157600080fd5b34600b5403600b8190555034600c819055507f03b5033869479e8a98af42b272f05933f60489fe9fb43d63e11a6c31f3fa74743334604051808373ffffffffffffffffffffffffffffffffffffffff1673ffffffffffffffffffffffffffffffffffffffff1681526020018281526020019250505060405180910390a1565b600460009054906101000a900473ffffffffffffffffffffffffffffffffffffffff1681565b60001515600260009054906101000a900460ff16151514610fc657600080fd5b6001600360003373ffffffffffffffffffffffffffffffffffffffff1673ffffffffffffffffffffffffffffffffffffffff16815260200190815260200160002060006101000a81548160ff0219169083151502179055506001600260006101000a81548160ff0219169083151502179055507fe653009d32c7245a6ff858fa3a804f5beb3b19b4bbe48178446e966401d8389433604051808273ffffffffffffffffffffffffffffffffffffffff1673ffffffffffffffffffffffffffffffffffffffff16815260200191505060405180910390a1565b60065481565b60085481565b80600073ffffffffffffffffffffffffffffffffffffffff168173ffffffffffffffffffffffffffffffffffffffff16141561114e576040517f08c379a000000000000000000000000000000000000000000000000000000000815260040180806020018281038252601b8152602001807f3074682061646472657373206973206e6f7420616c6c6f77656421000000000081525060200191505060405180910390fd5b6000809054906101000a900473ffffffffffffffffffffffffffffffffffffffff1673ffffffffffffffffffffffffffffffffffffffff168273ffffffffffffffffffffffffffffffffffffffff1614156111f4576040517f08c379a00000000000000000000000000000000000000000000000000000000081526004018080602001828103825260358152602001806114886035913960400191505060405180910390fd5b7ff32dc6bb034b9afc20d4c7daa180b08e89cac33817a6836595b1021c4347620482600554600654604051808473ffffffffffffffffffffffffffffffffffffffff1673ffffffffffffffffffffffffffffffffffffffff168152602001838152602001828152602001935050505060405180910390a15050565b60098054600181600116156101000203166002900480601f0160208091040260200160405190810160405280929190818152602001828054600181600116156101000203166002900480156113055780601f106112da57610100808354040283529160200191611305565b820191906000526020600020905b8154815290600101906020018083116112e857829003601f168201915b505050505081565b60036020528060005260406000206000915054906101000a900460ff1681565b600260009054906101000a900460ff1681565b6005548156fe4c616e646c6f72642063616e206f6e6c7920636c61696d206465706f73697420616674657220706572696f6420656e6454656e616e742063616e6e6f7420706179206465706f736974206d6f7265207468616e206f6e652074696d6554656e616e742063616e206f6e6c79207769746864726177206465706f73697420616674657220636c656172656420616c6c2072656e74616c2066656554656e616e742063616e206f6e6c79207769746864726177206465706f73697420616674657220706572696f6420656e644c616e646c6f72642063616e206f6e6c7920636c61696d206465706f7369742069662074656e616e7420646964206e6f7420736574746c652074686569722072656e7420616674657220706572696f6420656e644465706f73697420696e20636f6e74726163742063616e6e6f7420626520656d7074794c616e646c6f7264206973206e6f7420616c6c6f77656420746f2062652074656e616e74206174207468652073616d652074696d65a265627a7a72315820361ee5bb7f3b300ccd760565447f42b998847ff4406df6036a9d5d0a001fe54964736f6c63430005100032a265627a7a72315820c469a877204167035ef03f2b9e8a0131754022c21955b18ca86b2b9be77792a164736f6c63430005100032",
  "source": "pragma solidity >=0.5.0;\r\n\r\nimport './SmartRentContract.sol';\r\n\r\ncontract SmartRentFactory {\r\n\r\n    event NewLease(address contractAddress, address indexed landlord, address indexed tenant);\r\n\r\n    string name = \"Connected \";\r\n\r\n    function createRent(\r\n        string memory _landlord,\r\n        address payable _landlordAddress,\r\n        string memory _roomAddress,\r\n        uint256 _startDate,\r\n        uint256 _endDate,\r\n        uint256 _deposit,\r\n        uint256 _rent,\r\n        address payable _tenantAddress\r\n    ) public \r\n    {\r\n        address newContract = address(new SmartRentContract(_landlord, _landlordAddress, _roomAddress, _startDate, _endDate, _deposit, _rent, _tenantAddress));\r\n        emit NewLease(newContract, _landlordAddress, _tenantAddress);\r\n    }\r\n}",
  "sourcePath": "C:/Users/User/Desktop/fyp/contracts/SmartRentFactory.sol",
  "compiler": {
    "name": "solc",
    "version": "0.5.16+commit.9c3226ce.Emscripten.clang"
  },
  "schemaVersion": "3.3.4",
  "updatedAt": "2021-05-03T15:41:09.029Z",
  "networkType": "ethereum",
  "devdoc": {
    "methods": {}
  },
  "userdoc": {
    "methods": {}
  }
}