{
  "contractName": "SmartRent",
  "abi": [
    {
      "anonymous": false,
      "inputs": [
        {
          "indexed": false,
          "internalType": "address",
          "name": "tenantAddress",
          "type": "address"
        },
        {
          "indexed": false,
          "internalType": "uint256",
          "name": "rentDeposit",
          "type": "uint256"
        }
      ],
      "name": "DepositPaid",
      "type": "event"
    },
    {
      "anonymous": false,
      "inputs": [
        {
          "indexed": false,
          "internalType": "address",
          "name": "tenantAddress",
          "type": "address"
        },
        {
          "indexed": false,
          "internalType": "uint256",
          "name": "rentAmount",
          "type": "uint256"
        },
        {
          "indexed": false,
          "internalType": "uint256",
          "name": "rentDeposit",
          "type": "uint256"
        }
      ],
      "name": "TenantAssigned",
      "type": "event"
    },
    {
      "anonymous": false,
      "inputs": [
        {
          "indexed": false,
          "internalType": "address",
          "name": "tenantAddress",
          "type": "address"
        }
      ],
      "name": "TenantSigned",
      "type": "event"
    },
    {
      "constant": true,
      "inputs": [],
      "name": "tenant",
      "outputs": [
        {
          "internalType": "uint256",
          "name": "rentAmount",
          "type": "uint256"
        },
        {
          "internalType": "uint256",
          "name": "rentDeposit",
          "type": "uint256"
        },
        {
          "internalType": "bool",
          "name": "isSigned",
          "type": "bool"
        },
        {
          "internalType": "bool",
          "name": "hasPaidDeposit",
          "type": "bool"
        },
        {
          "internalType": "bool",
          "name": "initialized",
          "type": "bool"
        }
      ],
      "payable": false,
      "stateMutability": "view",
      "type": "function"
    },
    {
      "constant": true,
      "inputs": [
        {
          "internalType": "address",
          "name": "",
          "type": "address"
        }
      ],
      "name": "tenantToSigned",
      "outputs": [
        {
          "internalType": "uint256",
          "name": "rentAmount",
          "type": "uint256"
        },
        {
          "internalType": "uint256",
          "name": "rentDeposit",
          "type": "uint256"
        },
        {
          "internalType": "bool",
          "name": "isSigned",
          "type": "bool"
        },
        {
          "internalType": "bool",
          "name": "hasPaidDeposit",
          "type": "bool"
        },
        {
          "internalType": "bool",
          "name": "initialized",
          "type": "bool"
        }
      ],
      "payable": false,
      "stateMutability": "view",
      "type": "function"
    },
    {
      "constant": false,
      "inputs": [
        {
          "internalType": "uint256",
          "name": "_startDate",
          "type": "uint256"
        }
      ],
      "name": "setStartDate",
      "outputs": [],
      "payable": false,
      "stateMutability": "nonpayable",
      "type": "function"
    },
    {
      "constant": false,
      "inputs": [
        {
          "internalType": "uint256",
          "name": "_endDate",
          "type": "uint256"
        }
      ],
      "name": "setEndDate",
      "outputs": [],
      "payable": false,
      "stateMutability": "nonpayable",
      "type": "function"
    },
    {
      "constant": false,
      "inputs": [
        {
          "internalType": "string",
          "name": "_roomAddress",
          "type": "string"
        }
      ],
      "name": "setRoomAddress",
      "outputs": [],
      "payable": false,
      "stateMutability": "nonpayable",
      "type": "function"
    },
    {
      "constant": false,
      "inputs": [
        {
          "internalType": "address",
          "name": "_tenantAddress",
          "type": "address"
        },
        {
          "internalType": "uint256",
          "name": "_rentAmount",
          "type": "uint256"
        },
        {
          "internalType": "uint256",
          "name": "_rentDeposit",
          "type": "uint256"
        }
      ],
      "name": "assignTenant",
      "outputs": [],
      "payable": false,
      "stateMutability": "nonpayable",
      "type": "function"
    },
    {
      "constant": false,
      "inputs": [],
      "name": "signContract",
      "outputs": [],
      "payable": false,
      "stateMutability": "nonpayable",
      "type": "function"
    },
    {
      "constant": false,
      "inputs": [],
      "name": "payDeposit",
      "outputs": [],
      "payable": true,
      "stateMutability": "payable",
      "type": "function"
    },
    {
      "constant": true,
      "inputs": [],
      "name": "getName",
      "outputs": [
        {
          "internalType": "string",
          "name": "",
          "type": "string"
        }
      ],
      "payable": false,
      "stateMutability": "view",
      "type": "function"
    }
  ],
  "bytecode": "0x60806040526040518060400160405280600a81526020017f536d6172742052656e74000000000000000000000000000000000000000000008152506009908051906020019061004f929190610062565b5034801561005c57600080fd5b50610107565b828054600181600116156101000203166002900490600052602060002090601f016020900481019282601f106100a357805160ff19168380011785556100d1565b828001600101855582156100d1579182015b828111156100d05782518255916020019190600101906100b5565b5b5090506100de91906100e2565b5090565b61010491905b808211156101005760008160009055506001016100e8565b5090565b90565b610c1c806101166000396000f3fe6080604052600436106100865760003560e01c806382d95df51161005957806382d95df5146101c5578063adf0779114610200578063b8b4f1a014610253578063dc4a611c1461026a578063e1746af91461033257610086565b806317d7de7c1461008b5780633784f0001461011b5780635c274b86146101565780637dc453a914610160575b600080fd5b34801561009757600080fd5b506100a06103bf565b6040518080602001828103825283818151815260200191508051906020019080838360005b838110156100e05780820151818401526020810190506100c5565b50505050905090810190601f16801561010d5780820380516001836020036101000a031916815260200191505b509250505060405180910390f35b34801561012757600080fd5b506101546004803603602081101561013e57600080fd5b8101908080359060200190929190505050610461565b005b61015e6104c4565b005b34801561016c57600080fd5b506101c36004803603606081101561018357600080fd5b81019080803573ffffffffffffffffffffffffffffffffffffffff169060200190929190803590602001909291908035906020019092919050505061065c565b005b3480156101d157600080fd5b506101fe600480360360208110156101e857600080fd5b81019080803590602001909291905050506108c8565b005b34801561020c57600080fd5b5061021561092b565b604051808681526020018581526020018415151515815260200183151515158152602001821515151581526020019550505050505060405180910390f35b34801561025f57600080fd5b50610268610976565b005b34801561027657600080fd5b506103306004803603602081101561028d57600080fd5b81019080803590602001906401000000008111156102aa57600080fd5b8201836020820111156102bc57600080fd5b803590602001918460018302840111640100000000831117156102de57600080fd5b91908080601f016020809104026020016040519081016040528093929190818152602001838380828437600081840152601f19601f820116905080830192505050505050509192919290505050610a96565b005b34801561033e57600080fd5b506103816004803603602081101561035557600080fd5b81019080803573ffffffffffffffffffffffffffffffffffffffff169060200190929190505050610ab0565b604051808681526020018581526020018415151515815260200183151515158152602001821515151581526020019550505050505060405180910390f35b606060098054600181600116156101000203166002900480601f0160208091040260200160405190810160405280929190818152602001828054600181600116156101000203166002900480156104575780601f1061042c57610100808354040283529160200191610457565b820191906000526020600020905b81548152906001019060200180831161043a57829003601f168201915b5050505050905090565b6000809054906101000a900473ffffffffffffffffffffffffffffffffffffffff1673ffffffffffffffffffffffffffffffffffffffff163373ffffffffffffffffffffffffffffffffffffffff16146104ba57600080fd5b8060078190555050565b60011515600460003373ffffffffffffffffffffffffffffffffffffffff1673ffffffffffffffffffffffffffffffffffffffff16815260200190815260200160002060020160029054906101000a900460ff1615151461052457600080fd5b60001515600460003373ffffffffffffffffffffffffffffffffffffffff1673ffffffffffffffffffffffffffffffffffffffff16815260200190815260200160002060020160019054906101000a900460ff1615151461058457600080fd5b346005600082825401925050819055506001600460003373ffffffffffffffffffffffffffffffffffffffff1673ffffffffffffffffffffffffffffffffffffffff16815260200190815260200160002060020160016101000a81548160ff0219169083151502179055507ff1953715a33b9e021c0f2cf12911e8ac25fdb177bf6fc92d1331ae05201fe9f63334604051808373ffffffffffffffffffffffffffffffffffffffff1673ffffffffffffffffffffffffffffffffffffffff1681526020018281526020019250505060405180910390a1565b82600073ffffffffffffffffffffffffffffffffffffffff168173ffffffffffffffffffffffffffffffffffffffff161415610700576040517f08c379a000000000000000000000000000000000000000000000000000000000815260040180806020018281038252601b8152602001807f3074682061646472657373206973206e6f7420616c6c6f77656421000000000081525060200191505060405180910390fd5b6000809054906101000a900473ffffffffffffffffffffffffffffffffffffffff1673ffffffffffffffffffffffffffffffffffffffff168473ffffffffffffffffffffffffffffffffffffffff1614156107a6576040517f08c379a0000000000000000000000000000000000000000000000000000000008152600401808060200182810382526035815260200180610bb36035913960400191505060405180910390fd5b6040518060a00160405280848152602001838152602001600015158152602001600015158152602001600115158152506001600082015181600001556020820151816001015560408201518160020160006101000a81548160ff02191690831515021790555060608201518160020160016101000a81548160ff02191690831515021790555060808201518160020160026101000a81548160ff0219169083151502179055509050507ff32dc6bb034b9afc20d4c7daa180b08e89cac33817a6836595b1021c43476204848484604051808473ffffffffffffffffffffffffffffffffffffffff1673ffffffffffffffffffffffffffffffffffffffff168152602001838152602001828152602001935050505060405180910390a150505050565b6000809054906101000a900473ffffffffffffffffffffffffffffffffffffffff1673ffffffffffffffffffffffffffffffffffffffff163373ffffffffffffffffffffffffffffffffffffffff161461092157600080fd5b8060068190555050565b60018060000154908060010154908060020160009054906101000a900460ff16908060020160019054906101000a900460ff16908060020160029054906101000a900460ff16905085565b60001515600460003373ffffffffffffffffffffffffffffffffffffffff1673ffffffffffffffffffffffffffffffffffffffff16815260200190815260200160002060020160009054906101000a900460ff161515146109d657600080fd5b6001600460003373ffffffffffffffffffffffffffffffffffffffff1673ffffffffffffffffffffffffffffffffffffffff16815260200190815260200160002060020160006101000a81548160ff0219169083151502179055507fe653009d32c7245a6ff858fa3a804f5beb3b19b4bbe48178446e966401d8389433604051808273ffffffffffffffffffffffffffffffffffffffff1673ffffffffffffffffffffffffffffffffffffffff16815260200191505060405180910390a1565b8060089080519060200190610aac929190610b0d565b5050565b60046020528060005260406000206000915090508060000154908060010154908060020160009054906101000a900460ff16908060020160019054906101000a900460ff16908060020160029054906101000a900460ff16905085565b828054600181600116156101000203166002900490600052602060002090601f016020900481019282601f10610b4e57805160ff1916838001178555610b7c565b82800160010185558215610b7c579182015b82811115610b7b578251825591602001919060010190610b60565b5b509050610b899190610b8d565b5090565b610baf91905b80821115610bab576000816000905550600101610b93565b5090565b9056fe4c616e646c6f7264206973206e6f7420616c6c6f77656420746f2062652074656e616e74206174207468652073616d652074696d65a265627a7a7231582068aacc84c6d97c8bdb138a197bde50435f38764397f0a162df235f152a2c4cc264736f6c63430005100032",
  "source": "// Learn more about Solidity here: https://solidity.readthedocs.io\r\n\r\n// This statement specifies the compatible compiler versions\r\npragma solidity >=0.5.0;\r\n\r\n// Declare a contract called HelloWorld\r\ncontract SmartRent {\r\n    \r\n    event TenantAssigned(address tenantAddress, uint rentAmount, uint rentDeposit);\r\n    event TenantSigned(address tenantAddress);\r\n    event DepositPaid(address tenantAddress, uint rentDeposit);\r\n\r\n    address payable landlordAddress;\r\n    \r\n    struct Tenant {\r\n        uint rentAmount;\r\n        uint rentDeposit;\r\n        bool isSigned;\r\n        bool hasPaidDeposit;\r\n        bool initialized;\r\n    }\r\n\r\n    Tenant public tenant;\r\n    \r\n    mapping (address => Tenant) public tenantToSigned;\r\n    uint deposit;\r\n    uint startDate;\r\n    uint endDate;\r\n    string roomAddress;\r\n\r\n    string name = \"Smart Rent\";\r\n\r\n    modifier landlordOnly() {\r\n        require(msg.sender == landlordAddress);\r\n        _;\r\n    }\r\n\r\n    modifier tenantOnly() {\r\n        require(tenantToSigned[msg.sender].initialized == true);\r\n        _;\r\n    }\r\n\r\n    modifier hasSigned() {\r\n        require(tenantToSigned[msg.sender].isSigned == true, \"Tenant must sign the contract before invoking this functionality\");\r\n        _;\r\n    }\r\n\r\n    modifier notZeroAddres(address addr){\r\n        require(addr != address(0), \"0th address is not allowed!\");\r\n        _;\r\n    }\r\n\r\n    function setStartDate(uint _startDate) public landlordOnly {\r\n        startDate = _startDate;\r\n    }\r\n\r\n    function setEndDate(uint _endDate) public landlordOnly {\r\n        endDate = _endDate;\r\n    }\r\n\r\n    function setRoomAddress(string memory _roomAddress) public {\r\n        roomAddress = _roomAddress;\r\n    }\r\n\r\n    function assignTenant(address _tenantAddress, uint _rentAmount, uint _rentDeposit)\r\n      external notZeroAddres(_tenantAddress) {\r\n        require(_tenantAddress != landlordAddress, \"Landlord is not allowed to be tenant at the same time\");\r\n        tenant = Tenant(_rentAmount, _rentDeposit, false, false, true);\r\n        //tenantToSigned[_tenantAddress] = tenant;\r\n        emit TenantAssigned(_tenantAddress, _rentAmount, _rentDeposit);\r\n    }\r\n\r\n    function signContract() public {\r\n        require(tenantToSigned[msg.sender].isSigned == false);\r\n        tenantToSigned[msg.sender].isSigned = true;\r\n        emit TenantSigned(msg.sender);\r\n    }\r\n\r\n    function payDeposit() external payable tenantOnly {\r\n        require(tenantToSigned[msg.sender].hasPaidDeposit == false);\r\n        deposit += msg.value;\r\n        tenantToSigned[msg.sender].hasPaidDeposit = true;\r\n        emit DepositPaid(msg.sender, msg.value);\r\n    }\r\n\r\n    function getName() public view returns (string memory) \r\n    {\r\n        // Return the storage variable 'name'\r\n        return name;\r\n    }\r\n}",
  "sourcePath": "C:/Users/User/Desktop/fyp/contracts/SmartRent.sol",
  "compiler": {
    "name": "solc",
    "version": "0.5.16+commit.9c3226ce.Emscripten.clang"
  },
  "schemaVersion": "3.3.4",
  "updatedAt": "2021-04-28T13:20:51.393Z",
  "devdoc": {
    "methods": {}
  },
  "userdoc": {
    "methods": {}
  }
}