{
  "contractName": "SmartRentContract",
  "abi": [
    {
      "inputs": [
        {
          "internalType": "string",
          "name": "_landlord",
          "type": "string"
        },
        {
          "internalType": "string",
          "name": "_tenant",
          "type": "string"
        },
        {
          "internalType": "address payable",
          "name": "_landlordAddress",
          "type": "address"
        },
        {
          "internalType": "string",
          "name": "_roomAddress",
          "type": "string"
        },
        {
          "internalType": "uint256",
          "name": "_startDate",
          "type": "uint256"
        },
        {
          "internalType": "uint256",
          "name": "_endDate",
          "type": "uint256"
        },
        {
          "internalType": "uint256",
          "name": "_deposit",
          "type": "uint256"
        },
        {
          "internalType": "uint256",
          "name": "_rent",
          "type": "uint256"
        },
        {
          "internalType": "address payable",
          "name": "_tenantAddress",
          "type": "address"
        }
      ],
      "payable": false,
      "stateMutability": "nonpayable",
      "type": "constructor"
    },
    {
      "anonymous": false,
      "inputs": [
        {
          "indexed": false,
          "internalType": "address",
          "name": "tenant",
          "type": "address"
        }
      ],
      "name": "ApprovedSmartRent",
      "type": "event"
    },
    {
      "anonymous": false,
      "inputs": [
        {
          "indexed": false,
          "internalType": "address",
          "name": "landlordAddress",
          "type": "address"
        },
        {
          "indexed": false,
          "internalType": "uint256",
          "name": "rentDeposit",
          "type": "uint256"
        }
      ],
      "name": "DepositClaimed",
      "type": "event"
    },
    {
      "anonymous": false,
      "inputs": [
        {
          "indexed": false,
          "internalType": "address",
          "name": "tenantAddress",
          "type": "address"
        },
        {
          "indexed": false,
          "internalType": "uint256",
          "name": "rentDeposit",
          "type": "uint256"
        }
      ],
      "name": "DepositPaid",
      "type": "event"
    },
    {
      "anonymous": false,
      "inputs": [
        {
          "indexed": false,
          "internalType": "address",
          "name": "tenantAddress",
          "type": "address"
        },
        {
          "indexed": false,
          "internalType": "uint256",
          "name": "rentDeposit",
          "type": "uint256"
        }
      ],
      "name": "DepositWithdrawn",
      "type": "event"
    },
    {
      "anonymous": false,
      "inputs": [
        {
          "indexed": false,
          "internalType": "address",
          "name": "tenantAddress",
          "type": "address"
        },
        {
          "indexed": false,
          "internalType": "uint256",
          "name": "amount",
          "type": "uint256"
        }
      ],
      "name": "RentPaid",
      "type": "event"
    },
    {
      "anonymous": false,
      "inputs": [
        {
          "indexed": false,
          "internalType": "address",
          "name": "landlordAddress",
          "type": "address"
        },
        {
          "indexed": false,
          "internalType": "uint256",
          "name": "amount",
          "type": "uint256"
        }
      ],
      "name": "RentWithdrawn",
      "type": "event"
    },
    {
      "anonymous": false,
      "inputs": [
        {
          "indexed": false,
          "internalType": "address",
          "name": "tenantAddress",
          "type": "address"
        },
        {
          "indexed": false,
          "internalType": "uint256",
          "name": "rentAmount",
          "type": "uint256"
        },
        {
          "indexed": false,
          "internalType": "uint256",
          "name": "rentDeposit",
          "type": "uint256"
        }
      ],
      "name": "TenantAssigned",
      "type": "event"
    },
    {
      "anonymous": false,
      "inputs": [
        {
          "indexed": false,
          "internalType": "address",
          "name": "tenantAddress",
          "type": "address"
        }
      ],
      "name": "TenantSigned",
      "type": "event"
    },
    {
      "constant": true,
      "inputs": [],
      "name": "depositInContract",
      "outputs": [
        {
          "internalType": "uint256",
          "name": "",
          "type": "uint256"
        }
      ],
      "payable": false,
      "stateMutability": "view",
      "type": "function"
    },
    {
      "constant": true,
      "inputs": [],
      "name": "endDate",
      "outputs": [
        {
          "internalType": "uint256",
          "name": "",
          "type": "uint256"
        }
      ],
      "payable": false,
      "stateMutability": "view",
      "type": "function"
    },
    {
      "constant": true,
      "inputs": [],
      "name": "hasPaidDeposit",
      "outputs": [
        {
          "internalType": "bool",
          "name": "",
          "type": "bool"
        }
      ],
      "payable": false,
      "stateMutability": "view",
      "type": "function"
    },
    {
      "constant": true,
      "inputs": [],
      "name": "isSigned",
      "outputs": [
        {
          "internalType": "bool",
          "name": "",
          "type": "bool"
        }
      ],
      "payable": false,
      "stateMutability": "view",
      "type": "function"
    },
    {
      "constant": true,
      "inputs": [],
      "name": "landlordAddress",
      "outputs": [
        {
          "internalType": "address payable",
          "name": "",
          "type": "address"
        }
      ],
      "payable": false,
      "stateMutability": "view",
      "type": "function"
    },
    {
      "constant": true,
      "inputs": [],
      "name": "landlordName",
      "outputs": [
        {
          "internalType": "string",
          "name": "",
          "type": "string"
        }
      ],
      "payable": false,
      "stateMutability": "view",
      "type": "function"
    },
    {
      "constant": true,
      "inputs": [],
      "name": "rentAmount",
      "outputs": [
        {
          "internalType": "uint256",
          "name": "",
          "type": "uint256"
        }
      ],
      "payable": false,
      "stateMutability": "view",
      "type": "function"
    },
    {
      "constant": true,
      "inputs": [],
      "name": "rentDeposit",
      "outputs": [
        {
          "internalType": "uint256",
          "name": "",
          "type": "uint256"
        }
      ],
      "payable": false,
      "stateMutability": "view",
      "type": "function"
    },
    {
      "constant": true,
      "inputs": [],
      "name": "rentHavePaid",
      "outputs": [
        {
          "internalType": "uint256",
          "name": "",
          "type": "uint256"
        }
      ],
      "payable": false,
      "stateMutability": "view",
      "type": "function"
    },
    {
      "constant": true,
      "inputs": [],
      "name": "roomAddress",
      "outputs": [
        {
          "internalType": "string",
          "name": "",
          "type": "string"
        }
      ],
      "payable": false,
      "stateMutability": "view",
      "type": "function"
    },
    {
      "constant": true,
      "inputs": [],
      "name": "startDate",
      "outputs": [
        {
          "internalType": "uint256",
          "name": "",
          "type": "uint256"
        }
      ],
      "payable": false,
      "stateMutability": "view",
      "type": "function"
    },
    {
      "constant": true,
      "inputs": [],
      "name": "tenantAddress",
      "outputs": [
        {
          "internalType": "address payable",
          "name": "",
          "type": "address"
        }
      ],
      "payable": false,
      "stateMutability": "view",
      "type": "function"
    },
    {
      "constant": true,
      "inputs": [],
      "name": "tenantName",
      "outputs": [
        {
          "internalType": "string",
          "name": "",
          "type": "string"
        }
      ],
      "payable": false,
      "stateMutability": "view",
      "type": "function"
    },
    {
      "constant": true,
      "inputs": [
        {
          "internalType": "address",
          "name": "",
          "type": "address"
        }
      ],
      "name": "tenantToSigned",
      "outputs": [
        {
          "internalType": "bool",
          "name": "",
          "type": "bool"
        }
      ],
      "payable": false,
      "stateMutability": "view",
      "type": "function"
    },
    {
      "constant": true,
      "inputs": [],
      "name": "totalRentLeft",
      "outputs": [
        {
          "internalType": "uint256",
          "name": "",
          "type": "uint256"
        }
      ],
      "payable": false,
      "stateMutability": "view",
      "type": "function"
    },
    {
      "constant": false,
      "inputs": [
        {
          "internalType": "address",
          "name": "_tenantAddress",
          "type": "address"
        }
      ],
      "name": "assignTenant",
      "outputs": [],
      "payable": false,
      "stateMutability": "nonpayable",
      "type": "function"
    },
    {
      "constant": false,
      "inputs": [],
      "name": "signContract",
      "outputs": [],
      "payable": false,
      "stateMutability": "nonpayable",
      "type": "function"
    },
    {
      "constant": false,
      "inputs": [],
      "name": "payDeposit",
      "outputs": [],
      "payable": true,
      "stateMutability": "payable",
      "type": "function"
    },
    {
      "constant": false,
      "inputs": [],
      "name": "withdrawDeposit",
      "outputs": [],
      "payable": true,
      "stateMutability": "payable",
      "type": "function"
    },
    {
      "constant": false,
      "inputs": [],
      "name": "payRent",
      "outputs": [],
      "payable": true,
      "stateMutability": "payable",
      "type": "function"
    },
    {
      "constant": false,
      "inputs": [],
      "name": "withdrawRent",
      "outputs": [],
      "payable": true,
      "stateMutability": "payable",
      "type": "function"
    },
    {
      "constant": false,
      "inputs": [],
      "name": "claimDeposit",
      "outputs": [],
      "payable": true,
      "stateMutability": "payable",
      "type": "function"
    }
  ],
  "bytecode": "0x60806040526000600360006101000a81548160ff0219169083151502179055506000600360016101000a81548160ff0219169083151502179055506000600b556000600d553480156200005157600080fd5b5060405162001e1d38038062001e1d83398181016040526101208110156200007857600080fd5b81019080805160405193929190846401000000008211156200009957600080fd5b83820191506020820185811115620000b057600080fd5b8251866001820283011164010000000082111715620000ce57600080fd5b8083526020830192505050908051906020019080838360005b8381101562000104578082015181840152602081019050620000e7565b50505050905090810190601f168015620001325780820380516001836020036101000a031916815260200191505b50604052602001805160405193929190846401000000008211156200015657600080fd5b838201915060208201858111156200016d57600080fd5b82518660018202830111640100000000821117156200018b57600080fd5b8083526020830192505050908051906020019080838360005b83811015620001c1578082015181840152602081019050620001a4565b50505050905090810190601f168015620001ef5780820380516001836020036101000a031916815260200191505b5060405260200180519060200190929190805160405193929190846401000000008211156200021d57600080fd5b838201915060208201858111156200023457600080fd5b82518660018202830111640100000000821117156200025257600080fd5b8083526020830192505050908051906020019080838360005b83811015620002885780820151818401526020810190506200026b565b50505050905090810190601f168015620002b65780820380516001836020036101000a031916815260200191505b50604052602001805190602001909291908051906020019092919080519060200190929190805190602001909291908051906020019092919050505088600190805190602001906200030a929190620003f0565b50876002908051906020019062000323929190620003f0565b50866000806101000a81548173ffffffffffffffffffffffffffffffffffffffff021916908373ffffffffffffffffffffffffffffffffffffffff16021790555085600a90805190602001906200037c929190620003f0565b508460088190555083600981905550826007819055508160068190555081600c8190555080600560006101000a81548173ffffffffffffffffffffffffffffffffffffffff021916908373ffffffffffffffffffffffffffffffffffffffff1602179055505050505050505050506200049f565b828054600181600116156101000203166002900490600052602060002090601f016020900481019282601f106200043357805160ff191683800117855562000464565b8280016001018555821562000464579182015b828111156200046357825182559160200191906001019062000446565b5b50905062000473919062000477565b5090565b6200049c91905b80821115620004985760008160009055506001016200047e565b5090565b90565b61196e80620004af6000396000f3fe6080604052600436106101355760003560e01c8063a709c4fe116100ab578063d1aac1711161006f578063d1aac171146103f2578063d964f29e14610443578063e1746af9146104d3578063e66a6b221461053c578063f63e7db21461056b578063f8ef1e13146105fb57610135565b8063a709c4fe14610324578063aca1feea1461032e578063b8b4f1a014610385578063bf8c0efc1461039c578063c24a0f8b146103c757610135565b80635c274b86116100fd5780635c274b86146101ff5780635f696ec3146102095780636322182e14610234578063906b7fc71461023e5780639419bc2914610269578063a3073fab146102f957610135565b806302d8db081461013a5780630b97bc8614610191578063117df088146101bc57806329d07a51146101c657806332dd81f6146101d0575b600080fd5b34801561014657600080fd5b5061014f610626565b604051808273ffffffffffffffffffffffffffffffffffffffff1673ffffffffffffffffffffffffffffffffffffffff16815260200191505060405180910390f35b34801561019d57600080fd5b506101a661064b565b6040518082815260200191505060405180910390f35b6101c4610651565b005b6101ce610972565b005b3480156101dc57600080fd5b506101e5610bae565b604051808215151515815260200191505060405180910390f35b610207610bc1565b005b34801561021557600080fd5b5061021e610dd2565b6040518082815260200191505060405180910390f35b61023c610dd8565b005b34801561024a57600080fd5b50610253610fd7565b6040518082815260200191505060405180910390f35b34801561027557600080fd5b5061027e610fdd565b6040518080602001828103825283818151815260200191508051906020019080838360005b838110156102be5780820151818401526020810190506102a3565b50505050905090810190601f1680156102eb5780820380516001836020036101000a031916815260200191505b509250505060405180910390f35b34801561030557600080fd5b5061030e61107b565b6040518082815260200191505060405180910390f35b61032c611081565b005b34801561033a57600080fd5b506103436112b8565b604051808273ffffffffffffffffffffffffffffffffffffffff1673ffffffffffffffffffffffffffffffffffffffff16815260200191505060405180910390f35b34801561039157600080fd5b5061039a6112de565b005b3480156103a857600080fd5b506103b16113d6565b6040518082815260200191505060405180910390f35b3480156103d357600080fd5b506103dc6113dc565b6040518082815260200191505060405180910390f35b3480156103fe57600080fd5b506104416004803603602081101561041557600080fd5b81019080803573ffffffffffffffffffffffffffffffffffffffff1690602001909291905050506113e2565b005b34801561044f57600080fd5b506104586115a7565b6040518080602001828103825283818151815260200191508051906020019080838360005b8381101561049857808201518184015260208101905061047d565b50505050905090810190601f1680156104c55780820380516001836020036101000a031916815260200191505b509250505060405180910390f35b3480156104df57600080fd5b50610522600480360360208110156104f657600080fd5b81019080803573ffffffffffffffffffffffffffffffffffffffff169060200190929190505050611645565b604051808215151515815260200191505060405180910390f35b34801561054857600080fd5b50610551611665565b604051808215151515815260200191505060405180910390f35b34801561057757600080fd5b50610580611678565b6040518080602001828103825283818151815260200191508051906020019080838360005b838110156105c05780820151818401526020810190506105a5565b50505050905090810190601f1680156105ed5780820380516001836020036101000a031916815260200191505b509250505060405180910390f35b34801561060757600080fd5b50610610611716565b6040518082815260200191505060405180910390f35b6000809054906101000a900473ffffffffffffffffffffffffffffffffffffffff1681565b60085481565b600560009054906101000a900473ffffffffffffffffffffffffffffffffffffffff1673ffffffffffffffffffffffffffffffffffffffff163373ffffffffffffffffffffffffffffffffffffffff16146106f7576040517f08c379a00000000000000000000000000000000000000000000000000000000081526004018080602001828103825260228152602001806117416022913960400191505060405180910390fd5b60011515600360019054906101000a900460ff16151514610780576040517f08c379a00000000000000000000000000000000000000000000000000000000081526004018080602001828103825260208152602001807f54656e616e74206e65656420746f20706179206465706f73697420666972737481525060200191505060405180910390fd5b60095442116107da576040517f08c379a00000000000000000000000000000000000000000000000000000000081526004018080602001828103825260318152602001806117fc6031913960400191505060405180910390fd5b6000600b5411610835576040517f08c379a00000000000000000000000000000000000000000000000000000000081526004018080602001828103825260238152602001806118816023913960400191505060405180910390fd5b6000600c5414610890576040517f08c379a000000000000000000000000000000000000000000000000000000000815260040180806020018281038252603d8152602001806117bf603d913960400191505060405180910390fd5b600560009054906101000a900473ffffffffffffffffffffffffffffffffffffffff1673ffffffffffffffffffffffffffffffffffffffff166108fc600b549081150290604051600060405180830381858888f193505050501580156108fa573d6000803e3d6000fd5b506000600b819055507f4482101800a5c2e900f4156e57e05e19ffd7b366cde579553d723fd3abb2180e33600754604051808373ffffffffffffffffffffffffffffffffffffffff1673ffffffffffffffffffffffffffffffffffffffff1681526020018281526020019250505060405180910390a1565b6000809054906101000a900473ffffffffffffffffffffffffffffffffffffffff1673ffffffffffffffffffffffffffffffffffffffff163373ffffffffffffffffffffffffffffffffffffffff1614610a17576040517f08c379a000000000000000000000000000000000000000000000000000000000815260040180806020018281038252602481526020018061171d6024913960400191505060405180910390fd5b6009544211610a71576040517f08c379a00000000000000000000000000000000000000000000000000000000081526004018080602001828103825260308152602001806117636030913960400191505060405180910390fd5b6000600c541415610acd576040517f08c379a000000000000000000000000000000000000000000000000000000000815260040180806020018281038252605481526020018061182d6054913960600191505060405180910390fd5b6000809054906101000a900473ffffffffffffffffffffffffffffffffffffffff1673ffffffffffffffffffffffffffffffffffffffff166108fc600b549081150290604051600060405180830381858888f19350505050158015610b36573d6000803e3d6000fd5b506000600b819055507fe800e3ea37ded367af4fce9aa5ecaa72b693f315a2c3b6c7a3d07c84196515fb33600754604051808373ffffffffffffffffffffffffffffffffffffffff1673ffffffffffffffffffffffffffffffffffffffff1681526020018281526020019250505060405180910390a1565b600360019054906101000a900460ff1681565b600560009054906101000a900473ffffffffffffffffffffffffffffffffffffffff1673ffffffffffffffffffffffffffffffffffffffff163373ffffffffffffffffffffffffffffffffffffffff1614610c67576040517f08c379a00000000000000000000000000000000000000000000000000000000081526004018080602001828103825260228152602001806117416022913960400191505060405180910390fd5b60001515600360019054906101000a900460ff16151514610cd3576040517f08c379a000000000000000000000000000000000000000000000000000000000815260040180806020018281038252602c815260200180611793602c913960400191505060405180910390fd5b60011515600360009054906101000a900460ff16151514610d3f576040517f08c379a00000000000000000000000000000000000000000000000000000000081526004018080602001828103825260368152602001806119046036913960400191505060405180910390fd5b6001600360016101000a81548160ff02191690831515021790555034600b5401600b819055507ff1953715a33b9e021c0f2cf12911e8ac25fdb177bf6fc92d1331ae05201fe9f63334604051808373ffffffffffffffffffffffffffffffffffffffff1673ffffffffffffffffffffffffffffffffffffffff1681526020018281526020019250505060405180910390a1565b600c5481565b6000809054906101000a900473ffffffffffffffffffffffffffffffffffffffff1673ffffffffffffffffffffffffffffffffffffffff163373ffffffffffffffffffffffffffffffffffffffff1614610e7d576040517f08c379a000000000000000000000000000000000000000000000000000000000815260040180806020018281038252602481526020018061171d6024913960400191505060405180910390fd5b6000600d541415610ef6576040517f08c379a00000000000000000000000000000000000000000000000000000000081526004018080602001828103825260208152602001807f54656e616e7420686173206e6f74207061696420616e792072656e742079657481525060200191505060405180910390fd5b6000809054906101000a900473ffffffffffffffffffffffffffffffffffffffff1673ffffffffffffffffffffffffffffffffffffffff166108fc600d549081150290604051600060405180830381858888f19350505050158015610f5f573d6000803e3d6000fd5b507ffeb9f3b8586fb3823735104fd243164bdb90fcd9e989f902e96eb5b26bed4e3833600d54604051808373ffffffffffffffffffffffffffffffffffffffff1673ffffffffffffffffffffffffffffffffffffffff1681526020018281526020019250505060405180910390a16000600d81905550565b600b5481565b60018054600181600116156101000203166002900480601f0160208091040260200160405190810160405280929190818152602001828054600181600116156101000203166002900480156110735780601f1061104857610100808354040283529160200191611073565b820191906000526020600020905b81548152906001019060200180831161105657829003601f168201915b505050505081565b600d5481565b600560009054906101000a900473ffffffffffffffffffffffffffffffffffffffff1673ffffffffffffffffffffffffffffffffffffffff163373ffffffffffffffffffffffffffffffffffffffff1614611127576040517f08c379a00000000000000000000000000000000000000000000000000000000081526004018080602001828103825260228152602001806117416022913960400191505060405180910390fd5b60011515600360009054906101000a900460ff1615151461114757600080fd5b60011515600360019054906101000a900460ff161515146111d0576040517f08c379a00000000000000000000000000000000000000000000000000000000081526004018080602001828103825260208152602001807f54656e616e74206e65656420746f20706179206465706f73697420666972737481525060200191505060405180910390fd5b600c5434111561122b576040517f08c379a000000000000000000000000000000000000000000000000000000000815260040180806020018281038252602b8152602001806118d9602b913960400191505060405180910390fd5b600954421061123957600080fd5b34600c5403600c8190555034600d819055507f03b5033869479e8a98af42b272f05933f60489fe9fb43d63e11a6c31f3fa74743334604051808373ffffffffffffffffffffffffffffffffffffffff1673ffffffffffffffffffffffffffffffffffffffff1681526020018281526020019250505060405180910390a1565b600560009054906101000a900473ffffffffffffffffffffffffffffffffffffffff1681565b60001515600360009054906101000a900460ff161515146112fe57600080fd5b6001600460003373ffffffffffffffffffffffffffffffffffffffff1673ffffffffffffffffffffffffffffffffffffffff16815260200190815260200160002060006101000a81548160ff0219169083151502179055506001600360006101000a81548160ff0219169083151502179055507fe653009d32c7245a6ff858fa3a804f5beb3b19b4bbe48178446e966401d8389433604051808273ffffffffffffffffffffffffffffffffffffffff1673ffffffffffffffffffffffffffffffffffffffff16815260200191505060405180910390a1565b60075481565b60095481565b80600073ffffffffffffffffffffffffffffffffffffffff168173ffffffffffffffffffffffffffffffffffffffff161415611486576040517f08c379a000000000000000000000000000000000000000000000000000000000815260040180806020018281038252601b8152602001807f3074682061646472657373206973206e6f7420616c6c6f77656421000000000081525060200191505060405180910390fd5b6000809054906101000a900473ffffffffffffffffffffffffffffffffffffffff1673ffffffffffffffffffffffffffffffffffffffff168273ffffffffffffffffffffffffffffffffffffffff16141561152c576040517f08c379a00000000000000000000000000000000000000000000000000000000081526004018080602001828103825260358152602001806118a46035913960400191505060405180910390fd5b7ff32dc6bb034b9afc20d4c7daa180b08e89cac33817a6836595b1021c4347620482600654600754604051808473ffffffffffffffffffffffffffffffffffffffff1673ffffffffffffffffffffffffffffffffffffffff168152602001838152602001828152602001935050505060405180910390a15050565b600a8054600181600116156101000203166002900480601f01602080910402602001604051908101604052809291908181526020018280546001816001161561010002031660029004801561163d5780601f106116125761010080835404028352916020019161163d565b820191906000526020600020905b81548152906001019060200180831161162057829003601f168201915b505050505081565b60046020528060005260406000206000915054906101000a900460ff1681565b600360009054906101000a900460ff1681565b60028054600181600116156101000203166002900480601f01602080910402602001604051908101604052809291908181526020018280546001816001161561010002031660029004801561170e5780601f106116e35761010080835404028352916020019161170e565b820191906000526020600020905b8154815290600101906020018083116116f157829003601f168201915b505050505081565b6006548156fe4f6e6c79206c616e646c6f72642063616e2063616c6c20746869732066756e6374696f6e4f6e6c792074656e616e742063616e2063616c6c20746869732066756e6374696f6e4c616e646c6f72642063616e206f6e6c7920636c61696d206465706f73697420616674657220706572696f6420656e6454656e616e742063616e6e6f7420706179206465706f736974206d6f7265207468616e206f6e652074696d6554656e616e742063616e206f6e6c79207769746864726177206465706f73697420616674657220636c656172656420616c6c2072656e74616c2066656554656e616e742063616e206f6e6c79207769746864726177206465706f73697420616674657220706572696f6420656e644c616e646c6f72642063616e206f6e6c7920636c61696d206465706f7369742069662074656e616e7420646964206e6f7420736574746c652074686569722072656e7420616674657220706572696f6420656e644465706f73697420696e20636f6e74726163742063616e6e6f7420626520656d7074794c616e646c6f7264206973206e6f7420616c6c6f77656420746f2062652074656e616e74206174207468652073616d652074696d65416d6f756e7420696e7365727465642068617320657863656564206f75747374616e64696e672072656e7454656e616e74206e65656420746f207369676e2074686520636f6e7472616374206265666f726520706179696e67206465706f736974a265627a7a72315820de6d565757954c2a3f0e5ecbe2a4861bca538d867d629300bac8118ce0556f3a64736f6c63430005100032",
  "source": "// Learn more about Solidity here: https://solidity.readthedocs.io\r\n\r\n// This statement specifies the compatible compiler versions\r\npragma solidity >=0.5.0;\r\n\r\n// Declare a contract called HelloWorld\r\ncontract SmartRentContract {\r\n    \r\n    event TenantAssigned(address tenantAddress, uint rentAmount, uint rentDeposit);\r\n    event TenantSigned(address tenantAddress);\r\n    event DepositPaid(address tenantAddress, uint rentDeposit);\r\n    event DepositWithdrawn(address tenantAddress, uint rentDeposit);\r\n    event DepositClaimed(address landlordAddress, uint rentDeposit);\r\n    event RentPaid(address tenantAddress, uint amount);\r\n    event RentWithdrawn(address landlordAddress, uint amount);\r\n    event ApprovedSmartRent(address tenant);\r\n\r\n    address payable public landlordAddress;\r\n    string public landlordName;\r\n    string public tenantName;\r\n    \r\n    bool public isSigned = false;\r\n    bool public hasPaidDeposit = false;\r\n    \r\n    mapping (address => bool) public tenantToSigned;\r\n    address payable public tenantAddress;\r\n    uint256 public rentAmount;\r\n    uint256 public rentDeposit;\r\n    uint256 public startDate;\r\n    uint256 public endDate;\r\n    string public roomAddress;\r\n\r\n    uint256 public depositInContract = 0;\r\n    uint256 public totalRentLeft;\r\n    uint256 public rentHavePaid = 0;\r\n\r\n    constructor(string memory _landlord,\r\n            string memory _tenant,\r\n            address payable _landlordAddress,\r\n            string memory _roomAddress,\r\n            uint256 _startDate,\r\n            uint256 _endDate,\r\n            uint256 _deposit,\r\n            uint256 _rent,\r\n            address payable _tenantAddress)\r\n        public {\r\n            landlordName = _landlord;\r\n            tenantName = _tenant;\r\n            landlordAddress = _landlordAddress;\r\n            roomAddress = _roomAddress;\r\n            startDate = _startDate;\r\n            endDate = _endDate;\r\n            rentDeposit = _deposit;\r\n            rentAmount = _rent;\r\n            totalRentLeft = _rent;\r\n            tenantAddress = _tenantAddress;\r\n    }\r\n\r\n    modifier landlordOnly() {\r\n        require(msg.sender == landlordAddress, \"Only landlord can call this function\");\r\n        _;\r\n    }\r\n\r\n    modifier tenantOnly() {\r\n        require(msg.sender == tenantAddress, \"Only tenant can call this function\");\r\n        _;\r\n    }\r\n\r\n    modifier hasSigned() {\r\n        require(isSigned == true, \"Tenant must sign the contract before invoking this functionality\");\r\n        _;\r\n    }\r\n\r\n    modifier notZeroAddres(address addr){\r\n        require(addr != address(0), \"0th address is not allowed!\");\r\n        _;\r\n    }\r\n\r\n    function assignTenant(address _tenantAddress)\r\n      external notZeroAddres(_tenantAddress) {\r\n        require(_tenantAddress != landlordAddress, \"Landlord is not allowed to be tenant at the same time\");\r\n        emit TenantAssigned(_tenantAddress, rentAmount, rentDeposit);\r\n    }\r\n\r\n    function signContract() public {\r\n        require(isSigned == false);\r\n        tenantToSigned[msg.sender] = true;\r\n        isSigned = true;\r\n        emit TenantSigned(msg.sender);\r\n    }\r\n\r\n    function payDeposit() external payable tenantOnly {\r\n        require(hasPaidDeposit == false, \"Tenant cannot pay deposit more than one time\");\r\n        require(isSigned == true, \"Tenant need to sign the contract before paying deposit\");\r\n        hasPaidDeposit = true;\r\n        depositInContract = depositInContract + msg.value;\r\n        emit DepositPaid(msg.sender, msg.value);\r\n    }\r\n\r\n    function withdrawDeposit() external payable tenantOnly {\r\n        require(hasPaidDeposit == true, \"Tenant need to pay deposit first\");\r\n        require(block.timestamp > endDate, \"Tenant can only withdraw deposit after period end\");\r\n        require(depositInContract > 0, \"Deposit in contract cannot be empty\");\r\n        require(totalRentLeft == 0, \"Tenant can only withdraw deposit after cleared all rental fee\");\r\n        tenantAddress.transfer(depositInContract);\r\n        depositInContract = 0;\r\n        emit DepositWithdrawn(msg.sender, rentDeposit);\r\n    }\r\n\r\n    function payRent() external payable tenantOnly {\r\n        require(isSigned == true);\r\n        require(hasPaidDeposit == true, \"Tenant need to pay deposit first\");\r\n        require(msg.value <= totalRentLeft, \"Amount inserted has exceed outstanding rent\");\r\n        require(block.timestamp < endDate);\r\n        totalRentLeft = totalRentLeft - msg.value;\r\n        rentHavePaid = msg.value;\r\n        emit RentPaid(msg.sender, msg.value);\r\n    }\r\n\r\n    function withdrawRent() external payable landlordOnly {\r\n        require(rentHavePaid != 0, \"Tenant has not paid any rent yet\");\r\n        landlordAddress.transfer(rentHavePaid);\r\n        emit RentWithdrawn(msg.sender, rentHavePaid);\r\n        rentHavePaid = 0;\r\n    }\r\n\r\n    function claimDeposit() external payable landlordOnly {\r\n        require(block.timestamp > endDate, \"Landlord can only claim deposit after period end\");\r\n        require(totalRentLeft != 0, \"Landlord can only claim deposit if tenant did not settle their rent after period end\");\r\n        landlordAddress.transfer(depositInContract);\r\n        depositInContract = 0;\r\n        emit DepositClaimed(msg.sender, rentDeposit);\r\n    }\r\n\r\n}",
  "sourcePath": "C:/Users/User/Desktop/fyp/contracts/SmartRentContract.sol",
  "compiler": {
    "name": "solc",
    "version": "0.5.16+commit.9c3226ce.Emscripten.clang"
  },
  "schemaVersion": "3.3.4",
  "updatedAt": "2021-05-24T06:30:11.512Z",
  "devdoc": {
    "methods": {}
  },
  "userdoc": {
    "methods": {}
  }
}